:020000040800F2
:1000000040180020D5000008994D0008C54600089A
:1000100000000000000000000000000000000000E0
:10002000000000000000000000000000B14F0008C8
:100030000000000000000000F54D000835560008E3
:10004000E7000008E7000008E7000008E7000008F4
:10005000E7000008E7000008E700000809050008BD
:10006000E7000008E7000008E7000008E7000008D4
:10007000E7000008E7000008E7000008095700084B
:10008000B9570008A558000800000000E700000864
:10009000E7000008E7000008E7000008E7000008A4
:1000A000E7000008E7000008E7000008E700000894
:1000B000315B000800000000E700000800000000BD
:1000C0000348854600F070F800480047896500083D
:1000D000401800200448804704480047FEE7FEE738
:1000E000FEE7FEE7FEE7FEE7A9560008C1000008AC
:1000F00030B50B46014600202022012409E00D46C0
:10010000D5409D4205D31D469540491B2546954047
:1001100040191546521E002DF1DC30BD70B500248B
:100120002546002801DA01244042002901DA012590
:100130004942FFF7DDFFAC4200D04042002C00D026
:10014000494270BD03460B439B0703D009E008C931
:10015000121F08C0042AFAD203E00B780370401C77
:10016000491C521EF9D27047D2B201E00270401C05
:10017000491EFBD270470022F6E710B513460A4627
:1001800004461946FFF7F0FF204610BD30B504467F
:100190000020034600E05B1C934203D2E05CCD5C90
:1001A000401BF8D030BD0000064C0125064E05E08E
:1001B000E36807CC2B430C3C98471034B442F7D388
:1001C000FFF782FFCC9D0008EC9D000870B58C18ED
:1001D0000578401C6B075B0F01D10378401C2A1186
:1001E00006D10278401C03E006780E70401C491CC2
:1001F0005B1EF9D12B0705D40023521E0DD40B70C2
:10020000491CFAE70378401CCB1A921C03E01D78C6
:100210000D70491C5B1C521EF9D5A142D8D3002099
:1002200070BD836A0B43836242617047016070470F
:10023000002904D0816801221143816070478168E0
:10024000022211438160704710B50649884208D1E7
:1002500044150121204604F00FFE0021204604F041
:100260000BFE10BD00240140002182680123DB0742
:100270001A4382600F231B038268D20FD207491CE6
:10028000994201D0002AF7D18168002901DB006C76
:10029000704700207047006C80B270470022CB018D
:1002A00004D5806801231B06984300E000680842DB
:1002B00000D001221046704730B4C268084B1A4083
:1002C0008C680B680D792343CC686D032C43234362
:1002D0000C69496923430B431343C36030BC704727
:1002E00003D2FFFF81680422114381607047816857
:1002F000102211438160704700210160017181600B
:10030000C16001614161704770B4144CE17D002906
:100310001ED1134E226B134B3168C72A07D90A220C
:10032000E275114A11403160196CE16410E07825E2
:10033000E575042529433160B42A02D8996AE1643D
:1003400006E0BE2A02D8D96AE16401E0596BE16493
:10035000E36C834200D2184670BC7047380000201E
:10036000000100200C010020FBFF00000107090F25
:1003700000090A2250434018C0B2704710B56421EA
:10038000FFF7B6FE08460A21FFF7B2FE0007020E8D
:100390000846104310BD000070B4FF22FF2300295F
:1003A0000BD0084D084E0478401C54402A5D5A403A
:1003B000335D491EC9B20029F5D11002184370BC43
:1003C00070470000AC9B0008AC9C00080D4A0C4B29
:1003D000117858541878AA2802D0002010700CE028
:1003E000491CC8B21070122807D3D07802210843E4
:1003F000D07005201071032090700020704700001D
:100400009006002014030020F0B40027C40743081E
:10041000E40F082504268200002904D001291CD0FD
:100420003846F0BC70474101802739409F09BF0121
:100430000F43202113460B403B43210119432A401F
:100440000A4301090B46334013430222114019436A
:10045000C006C00F0843F0BC7047E101C40040274C
:100460003C400C43810849094901214310242240A2
:100470000A432B401343C20832401A434109022366
:10048000194011438007C00F0843F0BC704770B596
:100490000646084615460024002D07D90A21FFF715
:1004A00027FE3155641CE4B2AC42F7D370BD0000A6
:1004B00070B505460C46002C23D0124E280605D5F3
:1004C00001222021304604F0D3F804E0002220214C
:1004D000304604F0CDF800228021304604F0C8F800
:1004E0006806050E032005F0D9FD01228021304663
:1004F00004F0BEF8032005F0D1FD641EE4B2002C28
:10050000DCD170BD0004004870B50125ED0228461D
:1005100000F02AF8124C012600280CD02068A843CD
:1005200020606069284360610E48D021C162018863
:100530003143018070BD0125AD02284600F014F85A
:100540000028F7D02068A8432060606928436061D4
:1005500034210807C16201883143018070BD000069
:10056000000401400010004001460020024A526988
:100570000A4200D0012070470004014010B41A491B
:1005800083790268002B28D00B6893430B604A687C
:1005900003689A434A600279521813680468234337
:1005A00013608A6803689A438A60CA6803689A433A
:1005B000CA604279102A06D051180A6800680243BE
:1005C0000A6010BC70478A6803681A438A60CA6868
:1005D00000680243CA6010BC704700794018016887
:1005E0009143016010BC70470004014030B41E4BC1
:1005F000987A002826D000201C4A4400145B611819
:1006000089B2401CC0B20828F7D3080AD88228282B
:100610000AD9998C02462832914202D8503A914226
:1006200004DA9884186301E000201863104AFF245C
:10063000196BF134DF231078A14205D2FD21084067
:100640001840107030BC704709480A4D00780224E9
:100650002043A94204D220210843107030BC7047C7
:100660001840107030BC7047F4010020F0040020E6
:100670003C0000205D04000010B5102003F0FEFFD8
:10068000094B0A491A8C8A4200D01046597C082925
:1006900005D24A1C5A74064A4900505210BD002027
:1006A00058740120987210BDF4010020FFFF000073
:1006B000F0040020F8B56148017A002979D00025BE
:1006C00005725F485F4902785F48002A07685B4807
:1006D000846A17D05D480068002813D15C48006820
:1006E00000280FD15B48006800280BD15A480078D9
:1006F000002807D159480078C00603D4584800782C
:10070000002808D04D48856545720565C583456458
:100710008564C1643DE04948826DBA4207D087656F
:1007200005654572C58345648564C16431E0002F69
:100730002FD0417A00292CD14048C18B491C8EB260
:10074000C683F02E15D30C213046FFF7D1FC0029CB
:100750000FD1FF21394869318E420AD2816CA14202
:1007600000D28464C16CA14200D9C464416C0919EF
:100770004164FF21314869318E420AD3C583826CBE
:10078000416C891AC26C891A4164C908016501214A
:1007900041722A4E707A00280CD0F079FF2801D2DD
:1007A000401CF0717D200001874206D93C20706515
:1007B0000EE03FE0F571B58337E04B200001874242
:1007C00002D22320706503E0381A40092330706597
:1007D000F079782829D3726D316D18488B1A808B87
:1007E000A34201D9914202D88918A14212D22146CE
:1007F0001C4A333991420DD2401C80B2B0832D2166
:100800000901884211D3B58302F09CFB16490120EF
:1008100008700AE0002801D0401EB083322C03DDAE
:100820007D204001844200DBB583B08B782802D95B
:1008300001203070F8BD3570F8BD0000F4010020D3
:1008400038000020FF0F00006C000020FC0000209A
:10085000F8000020000100203B0000206400002080
:100860003F0000206D0F00008F010020F8B5B34E4F
:10087000B34D3078002400280FD1032131700120BE
:10088000F070347100202C54401CC0B2C828FAD338
:100890007078002801D074707171F078012810D13F
:1008A0007779002F0DD030790A280BD2401C307197
:1008B000401E14214843C0B2B0702918142204F01D
:1008C0006BFBF8BD0A2812D09C48C47044719D4946
:1008D00068780870002804D09B4A782111709B4AE0
:1008E00011709B4AA978117000283AD137E00B208B
:1008F0003071C82292499748FFF724FC7F1EFAB254
:100900007271002100202B5C5918C9B2401CC0B282
:10091000C728F8D3C843C1B22878AA2801D0BB2879
:1009200003D18D4BDB798B4215D0002000212B5C4D
:10093000FF2B01D1491CC9B2C72801D1C82907D052
:10094000401CC0B2C828F2D3002ABAD0F470F8BD57
:10095000F4707471F8BDBB28FCD1F470F8BD0129A6
:1009600000D914707D49E8780870002801D0032868
:1009700001D9012008707A4928790870002801D02F
:10098000032801D9012008707649E87908701A38DF
:100990000F2801D324200870734E287A3080734FBB
:1009A000697A397001F048FE30800026704FF000FF
:1009B000811B63480818817AC27A090289186D4A36
:1009C00075005153017B427B090289186A4A5153D1
:1009D0006A4A817B9155C37B007C1B02181880B248
:1009E00078531A390F2901D3242191555F49097889
:1009F00001F022FE7853761CF6B2042ED7D360485D
:100A0000604A017A1170012900D914705E4A417A56
:100A10001170032900D914705C49867C0E705C4902
:100A2000C27C0A70017D5B4B8C4619705A49437D2C
:100A30000B705A49857D0D70594FC17D39701A3E32
:100A40000F2E02D3514F24263E70514E1A3A0F2AD0
:100A500001D32422327062464E4E1A3A0F2A01D335
:100A6000242232704C4A042B00D914704B4A012DB9
:100A700000D914704A4A002903D0192901D019213C
:100A80001170484A017F1170474B407F187001294F
:100A900000D91470012801D90120187043A0006802
:100AA0000090694608784978000240182349C881B7
:100AB0003F481E21407848433E4908600021204EAF
:100AC0003D4FC800801940308278C3781202D31895
:100AD0004A00D519AB80037945791B025B19374D64
:100AE000AB528379C5791B025B19354DAB52037A42
:100AF000407A1B021818334B9852491CC9B2062978
:100B0000DFD33148314B017E427E0902891889B218
:100B10001980827EC57E120252192D4D92B22A8012
:100B20002C4D407F2870962900D91C80962A00D928
:100B30001C802948294980780870F8BDE802002007
:100B40000005002038000020DC0100203F000020CC
:100B500045000020C8050020C00500203900002005
:100B60003A00002046000020620000209001002092
:100B7000B8000020A8000020B00000209000002055
:100B80002005002057000020910100208301002053
:100B900084010020850100208601002087010020BB
:100BA000880100208B0100208D010020010200003F
:100BB000400500209C01002038040020440400204F
:100BC000500400205C040020600500200602002084
:100BD000080200208F01002080050020DE00002098
:100BE000F0B595B0FE480178002906D106210170C4
:100BF0000121C171002101728171F948C079012878
:100C00007ED1F748FC4E047A304640301490F84DBF
:100C1000F4492878F44AF54BF64F8446097812785F
:100C20001B7838781390F548F54D00882D7812958B
:100C3000F44D2D781195F44D2D781095F34D2D78B8
:100C40000F95F34D2D780E95F24D2D780D95F24DB3
:100C50002D780C95F14D2D780B95F14D2D780A9549
:100C6000F04D2D780995F04D2D780895EF4D2D68B4
:100C70000795EF4D2D780695EE4D2D780595EE4DA7
:100C80002D780495354680350395EC4D2D880295D9
:100C9000EB4D2D880195354620356036002C02D06D
:100CA000012C7DD02CE2CE4F01243C720024D24F87
:100CB0007F788F4200D00124CF498F78974201D0AE
:100CC000641CE4B2CA789A4201D0641CE4B20B7985
:100CD000634501D0641CE4B2CB79139A934201D0EE
:100CE000641CE4B20A7A824201D0641CE4B24A7AFB
:100CF0001298824201D0641CE4B20020C10000E0DE
:100D0000CDE00A1ABC4951188A7ACB7A1202D71858
:100D1000CC4B42009B5E9F4201D0641CE4B20B7B33
:100D20004F7B1B02DF19C84B9B5E9F4201D0641CA6
:100D3000E4B2C64B8F7B1B5C9F4201D0641CE4B2C3
:100D4000CB7B097C1B025918C14BAB4F9A5A91427D
:100D500001D0641CE4B2401CC0B20428CED3297A6E
:100D60001198814201D0641CE4B2697A10988142E2
:100D700001D0641CE4B2A97C0F98814201D0641CAC
:100D8000E4B2E97C0E98814201D0641CE4B2297D72
:100D90000D98814201D0641CE4B2697D0C9800E09A
:100DA0007FE0814201D0641CE4B2A97D0B988142AE
:100DB00001D0641CE4B2E97D0A98814201D0641C30
:100DC000E4B2297F0998814201D0641CE4B2697FB2
:100DD0000898814201D0641CE4B21E210798FFF7F5
:100DE00087F914994978884201D0641CE4B2002143
:100DF000CA00D01940308278C3781202D518954BBA
:100E00004A00D3189B889D4201D0641CE4B2037948
:100E100045791B025D19904B9B5A9D4201D0641C81
:100E2000E4B28379C5791B025D198C4B9B5A9D42B4
:100E300001D0641CE4B2037A407A1B021B18884874
:100E4000805A834201D0641CE4B2491CC9B206290D
:100E5000CED3717E307E083188400199884201D01E
:100E6000641CE4B2307FF17E0830814002988142F8
:100E700001D0641CE4B2717F0698814201D0641CE9
:100E8000E4B2039881780598814201D0641CE4B2F1
:100E90000498400701D5641CE4B25148847115B030
:100EA000F0BD4F4FBF79002F7ED04D4F02243C72D2
:100EB000514CAA2727706170A270E37061462171BE
:100EC0001399E17120721298607200215D484A0006
:100ED000835AC8001F12401A00198772C3725A4BF6
:100EE0009B5A1F12077343735E4B5B5C8373584BB3
:100EF0009A5A130AC3730274491CC9B20429E5D370
:100F000011982872109868720F98A8740E98E87457
:100F10000D9828750C9868750B98A8750A98E8754F
:100F200009982877089868771E210798FFF7E0F856
:100F3000149948700021494F46484A001018838888
:100F4000C8001D0A001940308570C370424B9B5A7F
:100F50001D0A05714371BB5A1D0A8571C371404B4F
:100F60009A5A130A03724272491CC9B20629E3D382
:100F70000198000A3076019870760298000AB076DF
:100F80000298F07606987077039905988870039810
:100F9000C07E0499284A490768D50499FB23194063
:100FA0001170401CC5B200E0AAE08C20215C221820
:100FB0005170401CC0B29A28F8D32B480668002E06
:100FC0005CD00121AF0101208840304252D08C20FA
:100FD000225C23185A70401CC0B29A28F8D346E00D
:100FE000E8020020380000204500002039000020E1
:100FF0003A0000204600002000050020620000208A
:101000009001002057000020910100208301002062
:101010008401002085010020860100208701002036
:10102000880100208B0100208D0100209C01002000
:101030008F010020DE000020DD00002008020020DB
:1010400006020020A8000020B00000209000002030
:10105000B800002038040020440400205004002080
:101060005C04002094000020FC0000203AE0039A79
:1010700078181073491CC9B21029A4D937480368DD
:10108000002B14D00121AF010120884018420AD062
:101090008C20225C26187270401CC0B29A28F8D3AB
:1010A000039A78181073491CC9B21029ECD92C483E
:1010B0000368002B14D00121AE01012088401842A2
:1010C0000AD08C20225C27187A70401CC0B29A2863
:1010D000F8D3039A70181073491CC9B21029ECD9BF
:1010E0000398C57600210020225C5118C9B2401C2B
:1010F000C0B2C728F8D3C8431A49C87115B0F0BDAB
:1011000019481B2CFAD281790029F7D0A41EE4B229
:10111000192CF3D2154F1448017A491C0172082684
:10112000E006050E1248791940193246FFF72EF8ED
:1011300000280DD079190C463246284604F010FFDD
:101140000B48214640193246FEF7FCFF15B0F0BDB2
:10115000641CE4B2192CDED315B0F0BDF8000020F9
:1011600000010020C0050020E8020020000500204A
:10117000C805002010B50B480078FF2808D00128CA
:1011800009D0022803D0002808D0FFF729FD10BDA0
:10119000FFF76CFB10BD00F007F810BDFFF720FD56
:1011A00010BD00005C000020F8B5444E444D30787E
:1011B0002C46C034002700281DD1032030700120A8
:1011C0007072B772BB20287001202F54401CC0B22F
:1011D000C728FAD3002100202A5C5118C9B2401C4C
:1011E000C0B2C728F8D3C843E0717078FE2802D097
:1011F000FE2070703773707A00280BD0B07A1928EF
:1012000009D2401CB0720822401EC006000E2918E8
:1012100004F0A6FEF8BD19280CD01E2813D2401CDD
:10122000B0721A3814214843C0B22918142203F0AE
:10123000B3FEF8BD1A20B07200202854401CC0B282
:101240006428FAD3F8BD1E2801D07772F8BDC822F1
:101250001B491C48FEF776FF0022002101202B5C71
:10126000002B01D0491CC9B2401CC0B2C728F6D31C
:1012700000202B5C9A18D2B2401CC0B2C728F8D309
:10128000D043C2B2F07A401EF0720F4B2D7818682E
:10129000BB2D04D1E479944201D100290AD0317BDD
:1012A000491CC9B231730229D0D3F7720421084313
:1012B0001860F8BD054908401860F8BDE802002034
:1012C00000050020C8050020F8000020FBFF0000FA
:1012D000F0B41448154B0168134804250068002930
:1012E00004D1002802D0197829431970104E1149F1
:1012F00032680968002A04D1002902D01A782A43EA
:101300001A700D4F0D4A3C681268002C04D1002A57
:1013100002D01C782C431C70024B186031603A607C
:10132000F0BC704774010020F8000020DD000020B0
:1013300078010020FC0000200401002000010020B2
:10134000F0B4684CA07805264007810F664F674AC5
:10135000674D002938D0800F012862D002287DD047
:101360000020810053586B50401CC0B21128F8D3A4
:101370000020604B60490A5C60490A54604A4100A1
:10138000525A5A52401CC0B22428F3D31420207061
:1013900066707D210901A18038807E8059494622EE
:1013A0000A800F224A80584902010A8050224A804E
:1013B000564955220A804880E96B286C401A5449E6
:1013C00040080860F0BC70470020810053586B5003
:1013D000401CC0B21128F8D30020464B46490A5C95
:1013E00046490A54464A4100525A5A52401CC0B219
:1013F0002428F3D31420207066707D210901A18078
:1014000038807E803F4946220A800F224A803E4A29
:1014100001011180502151803C4955220A804880A9
:10142000CAE700203B4B81005A586A50401CC0B2AA
:101430001128F8D300202F4B37490A5C2F490A5452
:10144000364A4100525A5A52401CC0B22428F3D3A3
:101450001920207066703249A18000E012E03880C7
:101460007E8028485F2101800F214180FF2126488E
:10147000A53101805021418024486E210180142132
:10148000418099E70020274B81005A586A50401C40
:10149000C0B21128F8D30020164B23490A5C174923
:1014A0000A54224A4100525A5A52401CC0B22428BF
:1014B000F3D31E20207066701D49A18038807E8085
:1014C0001049782008800F20488041200E49C00034
:1014D0000880502048800D488721018014214180D8
:1014E0006AE70000EC010020380400209C99000805
:1014F0000C0100207A020020689A000856020020A1
:101500008C9A000844040020500400205C04002051
:1015100070010020E0990008D49A0008F89A0008A9
:10152000C4090000249A0008409B0008649B00083E
:10153000B80B000010B506F06FF906F0E3FC06F0FA
:101540004FF910BD064807490278087C002A03D0ED
:101550007E2210430874704720221043087470479D
:10156000DC0100202404002010B50948426901690B
:10157000114309D08078002807D01421FEF7B8FD68
:101580000A2901D906F006FC10BD06F0EFFA10BDDD
:10159000E8000020F8B507460C46184801260078F8
:1015A000174D002805D017480121006806F042FCBD
:1015B00007E015480121006806F03CFC68783043DC
:1015C00068700121384606F041FA002C09D0012C40
:1015D0000BD0022C0DD0032C02D1E8783043E870F8
:1015E000F8BD287930432871F8BDA8793043A87137
:1015F000F8BDA8783043A870F8BD0000A401002011
:101600002404002020020020D8000020F8B557480C
:101610000078002809D05649642288785043C97858
:101620000818002106F012FAF8BD5248012500788A
:10163000514C00285DD0514E01213078401C06F0FD
:10164000F9FB4F484078C00747D03078002808D1D0
:101650004C4800781A38810040181E30012106F0ED
:10166000F5F93078012808D1474800781A38810008
:1016700040181E30012106F0E9F93078022808D11F
:10168000424800781A38810040181E30012106F0C7
:10169000DDF93078032807D13D48007881004018F3
:1016A0005030012106F0D2F9307804280DD1394F9D
:1016B0003878012803D10121084606F0C7F93878A7
:1016C000002802D1012106F0C1F93078052804D1A3
:1016D00031480121007806F0B9F93078032803D8A1
:1016E000607928436071F8BD6079400840006071FE
:1016F000F8BD2A482A490078002808D04878A07107
:10170000487C6071887A2071087BE073F8BD2548B9
:101710000078002809D024480078085CA071887DF2
:1017200060712071887AE073F8BD20480078002845
:10173000FAD01F48104900880979002802D02943AF
:1017400021710FE01B480C4A00885279002802D012
:101750002A43627106E000204908490021715108BE
:1017600049006171012106F071F9F8BD8001002086
:101770003403002081010020240400208201002085
:10178000E800002083010020840100208501002062
:1017900086010020870100208801002089010020A7
:1017A0007F9900088C0100208D0100208E0100200F
:1017B0000602002008020020F8B505461E2416483F
:1017C00001270078154E002805D015480121006832
:1017D00006F030FB07E013480121006806F02AFB01
:1017E0007078384370701A2D0AD31A3DA8002C184F
:1017F0001E34642C00D964241E2C04D21E2402E062
:10180000002D00D100240121204606F01FF9707937
:1018100038437071F8BD0000A401002024040020AA
:1018200020020020D800002070B50E480121006879
:1018300006F000FB0C4C0125607828436070012104
:10184000462006F003F96079284360710748807DDF
:1018500020726072E0722073A0732843E071A0725E
:10186000607370BDD8000020240400207F99000818
:10187000F8B563480121006806F0DCFA614D0126E5
:101880006878304368706048604902786048614F0A
:10189000002A5DD00078604C002847D020785F4A4D
:1018A0004000105A0978FFF775FE20783C2140006F
:1018B000385EFEF733FC012106F008F920783C2160
:1018C0004000385EFEF72AFC0846012106F026F9A2
:1018D0002078534F4000385E3C21FEF71FFC012169
:1018E00006F014F820783C214000385EFEF716FC24
:1018F0000846012106F032F8E8793043E871A87A09
:101900003043A872687B3043687346480078C0074C
:101910000BD0207800280FD0012811D0022813D036
:10192000032802D1287B30432873F8BD3E48217834
:10193000405CFFF741FFB8E7287A30432872F8BDD2
:10194000687A30436872F8BDE87A3043E872F8BDCF
:101950000078002843D035480978008880B2FFF726
:1019600019FE334C3C2120784000385EFEF7D6FB50
:10197000012106F0ABF820783C214000385EFEF7EC
:10198000CDFB0846012106F0C9F82078244F40001D
:10199000385E3C21FEF7C2FB012105F0B7FF20783D
:1019A0003C214000385EFEF7B9FB0846012105F0F6
:1019B000D5FFE8793043E871A87A3043A872687B94
:1019C00030436873207800280ED0012810D00228F8
:1019D00012D00328BBD1287B30432873F8BD1548AB
:1019E0000078FFF7E9FEBCE7287A30432872F8BD9B
:1019F000687A30436872F8BDE87A3043E872F8BD1F
:101A0000D800002024040020400000209001002085
:101A100057000020980000204C000020C00000204B
:101A2000A0000020E80000209000002078000020A6
:101A30004A0000204B000020F8B57A487A4F017820
:101A400001257A4C032930D2794E0020305E0129DD
:101A500002D0022913D024E03978C90705D03C21EF
:101A6000FEF75CFB012105F0A1FF00203C21305E68
:101A7000FEF754FB0846012105F0C0FF11E03C21B0
:101A8000FEF74CFB012105F091FF3878C00708D024
:101A900000203C21305EFEF741FB0846012105F0A5
:101AA000ADFFE0792843E071F8BD6248624E0178ED
:101AB000307800290AD061494000085A012105F018
:101AC000C5FF5F48007806F081F915E05D49085CC4
:101AD0001A280AD31A38810040181E30642800D909
:101AE00064201E2802D21E2000E00020012105F003
:101AF000ADFF60792843607153480121006806F00A
:101B000099F9607828436070307841004F48405E12
:101B10003C21FEF703FB012105F0D8FF307841009E
:101B20004A48405E3C21FEF7F9FA0846012105F0DB
:101B3000F5FF307841004648405E3C21FEF7EEFA62
:101B4000012105F0E3FE307841004148405E3C2130
:101B5000FEF7E4FA0846012105F000FFE07928438A
:101B6000E071A17A2943A172627B2A4362733378C0
:101B7000002B06D0012B08D0022B0AD0032B0CD04F
:101B80000EE0237A2B4323720AE0637A2B436372BD
:101B900006E0E37A2B43E37202E0237B2B432373BB
:101BA0003B78DB0780D12B4B1B78002B18D0012B07
:101BB0001ED0022B24D0032B2BD0042BF2D1E07BA0
:101BC000C007C00FE0732079C007C00F2071607993
:101BD000C007C00F6071A079C007C00FA071F8BD29
:101BE000217AC907C90F2172C007C00FE071F8BD83
:101BF000C807C00FA072607AC007C00F6072F8BD3E
:101C0000207BC007C00F2073E07AC007C00FE072CE
:101C1000F8BDA07BC007C00FA073D007C00F6073D2
:101C2000F8BD000048000020E80000202404002047
:101C300066000020570000204A000020C00000205D
:101C40009001002094000020D8000020980000207F
:101C5000A000002049000020F8B53B48007800288B
:101C600002D03A48047801E03948047839483A4EBD
:101C70000078002844D039496000085A012105F055
:101C8000E5FE3748007806F0A1F8364F6500785F2A
:101C90003C21FEF743FA012105F018FF785F3C2153
:101CA000FEF73CFA0846012105F038FF2E4F3C2193
:101CB000785FFEF733FA012105F028FE785F3C21BA
:101CC000FEF72CFA0846012105F048FEF1790120C3
:101CD0000143F171B17A0143B172717B01437173B8
:101CE00022490978C9070AD0002C21D0012C23D021
:101CF000022C25D0032C02D1317B01433173F8BD76
:101D00001B48005D1A280AD31A38810040181E307B
:101D1000642800D964201E2802D21E2000E0002082
:101D2000012105F093FE7079012108437071ACE741
:101D3000317A01433172F8BD717A01437172F8BD95
:101D4000F17A0143F172F8BD400000204C00002000
:101D50004A0000205700002024040020C00000207A
:101D60009001002098000020A0000020E800002042
:101D70009400002010B50F480121006806F05AF8C1
:101D80000D4801224178114341700C4A0C49907A68
:101D9000002809D00B48006808601178C90702D0F4
:101DA000012105F053FE10BD0868012105F04EFE2B
:101DB00010BD0000D800002024040020E80000200E
:101DC000A0010020980100201B4801781B48012930
:101DD00023D11B49097800291FD01A490978C9075E
:101DE0001BD001794908490001714179490849002E
:101DF0004171817849084900817081794908490019
:101E00008171817B490849008173C1784908490083
:101E1000C170C17B49084900C1730B490A78074961
:101E2000012A097803D0490849000170704701224E
:101E30001143017070470000F401002024040020C9
:101E400039000020E80000207603002070B5044629
:101E500012480121006805F0EDFF114D0126687858
:101E6000304368701E200F4A116CA14200D26420DA
:101E700000218B00D358A34205D1880008181430E4
:101E80001E2800D21E20491CC9B21129F1D30121FC
:101E900005F0DCFD68793043687170BDD800002022
:101EA000240400200C01002010B5FF221121074856
:101EB000FEF75AF90648C1780648782902D8002169
:101EC000017010BD0121017010BD0000240400202C
:101ED000E80000207203002010B511213248FEF7FF
:101EE0004AF932480078052807D2C00704D1FF22FA
:101EF00011212D48FEF738F910BD2B492C4A062830
:101F000025D0072826D0082827D0092828D00A2835
:101F100029D00B282AD00C282BD00D282CD00E2805
:101F20002DD00F282ED010282FD0112830D01228D5
:101F300031D0132832D0142833D01528DCD1107AB0
:101F4000887304F065FC1B490020087010BD107AEE
:101F5000087010BD107A487010BD107A887010BDDE
:101F6000107AC87010BD107AC87310BD107A08714D
:101F700010BD107A487110BD107A887110BD107AAA
:101F8000C87110BD107A087210BD107A487210BD69
:101F9000107A887210BD107AC87210BD107A08735A
:101FA00010BD107A487310BD24040020500000209A
:101FB0007F990008F403002070B50A2141430C18F2
:101FC000642141437D22D200611850430D18002145
:101FD000284605F02FFF0021284605F037FD002197
:101FE000204605F073FD0021204605F097FD0021F5
:101FF000204605F08BFC0021204605F0AFFC6F4821
:1020000001786F48002904D0017C402211430174FB
:1020100003E0017CBF22114001746A49097800295C
:1020200004D0017C20221143017403E0017CDF22F3
:102030001140017464490978002904D0017C102200
:102040001143017403E0017CEF22114001745F49E8
:102050000978002904D0017C08221143017403E0AF
:10206000017CF7221140017459490978002904D0F4
:10207000017C04221143017403E0017CFB22114026
:10208000017454490978002904D0017C02221143CB
:10209000017403E0017CFD22114001744E490A786D
:1020A0000121552A3BD042788A43427002788A4304
:1020B000027082798A438271827B8A43827382783A
:1020C0008A43827042798A434271C2788A43C270DD
:1020D000C27B8A43C27302798A430271C2798A43FE
:1020E000C271827A8A438272427B8A4342733B4A3C
:1020F0001278012A38D00278520852000270384A09
:10210000384B1288D418FF2390339C4230D2027A85
:102110000A430272427A52085200427233E0427815
:102120000A43427002780A43027082790A4382713C
:10213000827B0A43827382780A43827042790A431F
:102140004271C2780A43C270C27B0A43C2730279E9
:102150000A430271C2790A43C271827A0A438272C7
:10216000427B0A434273C2E702780A430270C6E721
:102170001D4C12199A4206D2427A0A434272027ADE
:10218000520852000272194A194C128814199C42C2
:1021900007D2C27A0A43C272017B4908490001731F
:1021A00070BD144C12199A42FAD2027B0A43027390
:1021B000C17A49084900C17270BD00005100002079
:1021C000240400205200002053000020540000206E
:1021D0005500002056000020EE010020F4030020EE
:1021E0000A020020CFFDFFFFCBF3FFFF0C0200200F
:1021F000DEFDFFFF59F3FFFF10B5FF22112102485A
:10220000FDF7B2FF10BD00002404002010B511211D
:102210004548FDF7B0FF454B43481A784449412AE9
:1022200023D0482A24D08A7DC2735A78632A22D0C8
:10223000642A23D08A7D02719A78302A21D0312AEB
:1022400022D08A7D4271DA78372A20D0312A21D0F3
:10225000352A22D0382A23D08A7D8271354A1278D5
:10226000D30720D04B78C3711FE08A7AC273DCE7B2
:102270000A7CC273D9E70A7B0271DDE74A7B0271EF
:10228000DAE70A784271DEE74A784271DBE7CA7919
:102290008271E3E74A788271E0E74A798271DDE78B
:1022A0000A7A8271DAE70B78C371930702D54B780B
:1022B000037201E00B780372530702D54B78437227
:1022C00001E00B784372130702D54B78837201E06B
:1022D0000B788372D30602D54B78C37201E00B787A
:1022E000C372930602D54B78037301E00B78037336
:1022F000530602D54B78437301E00B784373D20940
:1023000002D04978817301E0097881730A48017924
:10231000002904D000210171084909888181012127
:10232000808905F087FD10BD2404002044030020AF
:102330007F990008EE010020E80000203002002014
:10234000F8B50C46474FF969002904D1B96900294D
:1023500001D0002179723A7A39788A4208D03972EC
:10236000797A491CC9B27972122901D9002179728E
:10237000214600F013FE39780126C9073A4D00299D
:102380005CD0797A06291AD8012105F05FFB002C70
:1023900006D0012C08D0022C0AD0032C0FD10BE060
:1023A0002879304328710AE0A8793043A87106E003
:1023B000A8783043A87002E0E8783043E870787A73
:1023C0002A4CC01F052811D8387E80070CD5102153
:1023D0002548FDF7D0FEA07AE873607C287120784C
:1023E00068716078A87101E00D207872787A0D38F4
:1023F000052811D8387E40070CD510211A48FDF762
:10240000BAFEA07AE873607C287120786871A078A1
:10241000A87101E013207872787A133805280DD856
:10242000387E000708D5A07AE873607C2871207890
:102430006871E078A87101E0002078720C4800789B
:10244000002805D00B480121006805F0F3FCF8BD19
:1024500009480121006805F0EDFC68783043687098
:10246000F8BD0000E8000020240400207F99000847
:10247000A401002020020020D8000020F8B5444E1E
:102480000027F169002903D1B169002900D0F77153
:10249000B27931788A4207D0B171F179491CC9B259
:1024A000F171122900D9F77100F08AFD3178394DA8
:1024B000C90758D0F179062917D81A280AD31A382B
:1024C000810044181E34642C00D964241E2C04D2CC
:1024D0001E2402E0002800D100240121204605F03E
:1024E000B5FA6979012001436971F0792A4CC01F5E
:1024F000052811D8307E80070CD510212548FDF71E
:102500003AFEA07AE873607C287120786871607860
:10251000A87101E00D20F071F0790D38052811D86F
:10252000307E40070CD510211A48FDF724FEA07A12
:10253000E873607C287120786871A078A87101E048
:102540001320F071F079133805280CD8307E00077D
:1025500008D5A07AE873607C287120786871E078EB
:10256000A87100E0F7710D480078002805D00C48EC
:102570000121006805F05EFCF8BD0A4801210068F1
:1025800005F058FC6878012108436870F8BD000028
:10259000E8000020240400207F990008A401002006
:1025A00020020020D80000200548017805480029B5
:1025B00002D00021017070470121017070470000B6
:1025C0003F0000207203002010B502F0FBF902F07A
:1025D000CDFB02F0B7FA02F0CAFB002000BF401C9E
:1025E000C0B26428FAD302F01BFB02F08FF902F0AC
:1025F000A1FA0C49002008800B4908700B490F20F4
:1026000008700B4908700B4907200870002000BFB4
:10261000401CC0B26428FAD304F08CFD07F000F926
:1026200010BD0000E4010020EA0100207C01002030
:10263000DC000020C502002030B4184C0029258899
:102640006288A388E48814D0012914D0022918D004
:1026500003291CD02946884200D90846904200D25E
:102660001046984200D91846A04200D2204630BCFD
:1026700070472946EFE70A4C21886288A388E488DE
:10268000E9E7084C21886288A388E488E3E7064CE0
:1026900021886288A388E488DDE7000038040020F0
:1026A00044040020500400205C04002070B50D4656
:1026B000174C002D10D0012D10D0022D11D0032D5C
:1026C00012D00122134E0028318810DB8818308088
:1026D0002088801820800FE00122F3E705220E4CAD
:1026E000F0E714220D4CEDE705220D4CEAE7881ABD
:1026F00030802088801A208029463088FFF79CFF90
:10270000308020882946FFF797FF208070BD0000A9
:1027100040040020620000204C04002058040020E7
:10272000640400200B490028898807D0012807D0BD
:10273000022808D0032809D0084670470846704789
:10274000054880887047054880887047044880881D
:10275000704700003804002044040020500400208A
:102760005C04002070B5154C217C002807DB08189C
:10277000C0B2207404280FD3001F20740CE0424222
:10278000D2B20E4D40422D7CC0B2281A914202D2E4
:10279000001D207400E02074094D288800F0F0FB33
:1027A000217C00F0FBFB2880217C00F02FFC28809E
:1027B000217CFFF741FF288070BD000080010020D0
:1027C0006200002010B502460520002913D001291F
:1027D00013D0022925D003290ED1104616214843D3
:1027E0000521FDF785FC80B20521FDF781FC02295A
:1027F0002BD301212AE0104610BD10460B2148437F
:102800000321FDF775FC80B20521FDF771FC02295B
:1028100001D3012100E0002140188100401880B25E
:1028200010BD1046322148430321FDF761FC80B200
:102830001421FDF75DFC0A2901D3012100E00021EC
:1028400040181421484380B210BD00214018810077
:10285000401880B210BD000030B40F480268002A52
:1028600014D000200D4B0E4C810041180D4614353C
:10287000954205D81931914202D9810059582160F9
:10288000401CC0B21128EFD330BC7047054900206E
:10289000087030BC70470000380300200C01002095
:1028A0006C000020380000202D482E4B00682E4977
:1028B0002E4A984202D28868106070472C4B98428A
:1028C00002D2C868106070472A4B984202D2086949
:1028D00010607047284B984202D2486910607047D8
:1028E0000123DB02984202D2886910607047234BB3
:1028F000984202D2C86910607047214B984202D2B8
:10290000086A106070471F4B984202D2486A1060F4
:1029100070471D4B984202D2886A106070471B4B6B
:10292000984202D2C86A10607047194B984202D28E
:10293000086B10607047174B984202D2486B1060CA
:102940007047154B984202D2886B10607047134B4A
:10295000984202D2C86B10607047086C10607047D4
:1029600024020020170500000C0100206C0000204C
:10297000D10500008B06000045070000BA080000E2
:10298000740900002E0A0000E80A0000A20B0000F3
:102990005D0C0000170D0000D10D00008B0E000033
:1029A00010B427480178880706D5264940220878C0
:1029B0001043087010BC704723486422C0784C074D
:1029C0005043224A224B002C11DA106000200146AD
:1029D0000C31642461431468A14202D1810059582A
:1029E0001160401CC0B21128F1D310BC70470C0715
:1029F00011D51060002001460C3164246143146835
:102A0000A14202D1810059581160401CC0B2112866
:102A1000F1D310BC7047C906FBD5106000200146F9
:102A20000C31642461431468A14202D181005958D9
:102A30001160401CC0B21128F1D310BC70470000D7
:102A4000DD0100203C000020800100206C000020FF
:102A50000C0100200748084900780870074A917D5A
:102A6000814206D0002804D0042802D2044B1970F9
:102A70009075704739000020C800002080010020B8
:102A80003A000020F8B5484F012638780024474D19
:102A9000012806D14648067046480470EC7405F0DB
:102AA000DBFD41481E270078A4280CD03E49B02801
:102AB0001DD0942820D0A97A012927D08A2831D086
:102AC000A2283BD03EE005F0C7FD04F0BFFD3A4828
:102AD000FF2101703948046039490F2008703948D6
:102AE0000470394802220188114301802AE005F070
:102AF000B3FD0C20287025E0E87C002822D10C7062
:102B000005F0AAFD6F70EE74AC701BE005F0A4FD3B
:102B1000AC720F2068722D4804802D480480EE723C
:102B20006E730FE005F098FD687B002801D06C7390
:102B300000E06E73EE730F20287303E005F08CFD48
:102B40000A20A873E87C00282CD0174800780428B5
:102B500006D0102809D008280DD0942815D01DE0E3
:102B6000012006F049FA6F7018E00020C04306F01B
:102B700043FA6F7012E06F70A878401CC0B2A87062
:102B800005280BD9EC746C7008E06F70A878401CB5
:102B9000C0B2A870052801D9EC746C706878002860
:102BA00000D1EC74F8BD0000DA01002080010020A3
:102BB00038000020450000205C00002010040020A8
:102BC0007C010020C50200206400002006020020D5
:102BD00008020020F8B5834D8148AA8D00780221B3
:102BE000142601231143804F804C202810D0042844
:102BF00057D02A46927D842858D010285DD090283E
:102C000061D0942867D008286ED0A02877D07BE0C8
:102C1000AE71287C401CC0B22874172803D3002052
:102C20002874A8716874287C032801D2A98502E061
:102C300040210A43AA8503282FD9082802D200215F
:102C4000A9740AE00D2801D2AB7406E0122802D262
:102C50000221A97401E00321A9740521C01EFDF71A
:102C60005DFA6974AA7C5100785A00284CD0605EE5
:102C70008446002848D00020002A09D946007B5EFF
:102C8000A65FB34200DA7E52401CC0B29042F5D338
:102C9000785E844538DA605236E000206874A874A3
:102CA00032E0012005F0D2FBAE712DE0500702D5D5
:102CB000022005F0CBFBAE7126E00020C04305F0FA
:102CC000C5FBAE7120E0500703D50120C04305F0DD
:102CD000BDFBAE7118E0100704D504F0F5FA0F2023
:102CE00004F070FDAE710FE0A87C00280CD1687C68
:102CF000042809D1E87F5840E87705E0FFE7002085
:102D0000A87140200143A98536488079012808D15F
:102D1000344900208871888D0222104340221043DC
:102D200088850121002000290AD94B004200FD5E60
:102D3000A25E954200DAFA52401CC0B28842F5D336
:102D4000491CC9B20429EDD300212D256D010026AF
:102D500048003A5EAA4200DD3D523A5E002A00DA9F
:102D60003E52225EAA4200DD2552225E002A00DA8F
:102D700026523A5E235E9A4200DD2252AA4204D1D4
:102D8000225EAA4201D13E5226523A5A002A03D16B
:102D9000225EAA4200D12652491CC9B20429D7D3C7
:102DA0001049888D420619D54022904388852E20EF
:102DB000085E486500200E4A0E4B41007D5A555270
:102DC000655A5D520C4D2E5C0C4D2E540C4D0D4E23
:102DD0006D5A7552401CC0B20428EED3F8BD0000F5
:102DE000DA0100203800002098000020A000002018
:102DF000A8000020B00000209400002090000020D7
:102E0000C0000020B8000020F8B5294E717C009168
:102E1000002807DB0818C0B2707404280FD3001F05
:102E200070740CE04242D2B2214B40425B7CC0B293
:102E3000181A914202D2001D707400E070741D488F
:102E40000078002819D000241B4D6700E85D009928
:102E500000F096F8C0B2717C00F0A0F8C0B2717CAE
:102E600000F0D4F8C0B2717CFFF7E6FBC0B2E853C3
:102E7000641CE4B2042CE8D3F8BD00240F4F6500B5
:102E8000785D009900F07CF8C0B2717C00F086F8A3
:102E9000C0B2717C00F0BAF8C0B2717CFFF7CCFB15
:102EA000C0B27853641CE4B2042CE8D3F8BD00002F
:102EB000800100203E000020C0000020B80000205B
:102EC00006480178002908D10121017004490A202F
:102ED00008700449C8698861086270473B00002097
:102EE000F200002080010020074810210278122AF9
:102EF00008D001700548B4218161016204490A20AB
:102F000008707047017070473B000020800100206E
:102F1000F20000200848017800290BD1022101703D
:102F20004B210648C90081610162054A0A211170DE
:102F30000121C173704700003B0000208001002088
:102F4000F20000200A4A107800280FD10949087AB7
:102F500000280BD0032313703C2250438861086281
:102F600005490720087005490020087070470000D7
:102F70003B00002080010020F2000020E300002040
:102F800010B502460846FFF7CDFB01460248006C2B
:102F90005043FDF7ADF810BD0C01002010B50246FE
:102FA0000C462046FFF7BEFB04495043096CFDF771
:102FB0009FF880B22146FFF73FFB10BD0C010020B7
:102FC00030B400210F4B1C680F4B8D005D592D1B39
:102FD000854202D20A461832D2B2491CC9B211291E
:102FE000F3D3196C814200D22822002803D09968BB
:102FF000814200D91A22002800D1002230BC10469C
:1030000070470000700100200C01002010B500295D
:1030100018D001290AD0022915D0032912D105217F
:10302000FDF766F802291BD901211AE00521FDF7F9
:103030005FF8022901D9012100E000214018810038
:10304000401880B210BD1421FDF752F80A2901D9A9
:10305000012100E0002140181421484380B210BD36
:10306000002140188100401880B210BDF8B502F070
:1030700039FEC94A0024D07C002807D1C74B1878F4
:1030800040084000EF21084018705462D0790421B4
:10309000012803D1C2480378AA2B35D01473BE4847
:1030A0000125C0784207002A7EDABB4F0321F9715F
:1030B000FB210840F870304608380C2875D2B01E45
:1030C000C1B2B748FDF768F9C1B20004020EB44BB3
:1030D00098192038C67F8E4268D1807F904265D192
:1030E0001E46987832460002D178091810790002FD
:1030F000537918185278032A1CD0102A61D03C72D8
:10310000A7484470FD712FE1137B052BC7D9407888
:10311000032808D01028C2D1167A092EBFD9D0783A
:103120000843D070BBE7167A072EB8D9D078084389
:10313000D070B4E79B4A8A18042A3ED200283CD0BB
:1031400005283AD2984B0918994236D2796A18293B
:1031500006D396490B78002B02D00D7094490D7060
:10316000944EAA213170032171704006010EB17096
:1031700053000020002909D98F49C218895C3218F0
:10318000D170401CC0B2B1788142F5D8824A411D4D
:10319000D172C01CC7B239468648FDF7FDF8010A56
:1031A000F155F119487002E04DE047E042E07A49FC
:1031B0000620487208468472D6E03C727470FD7135
:1031C000D2E07E4881421BD11E26FE74734A1078DD
:1031D00028431070724BD97909021B7A5918796209
:1031E000642902D37649096C7962796A491E1D29DE
:1031F00000D27E62796A002918D01021084310702D
:1032000000206C4E66490A5C3254401CC0B206284D
:10321000F9D30820F87206216648FDF7BDF8010AC7
:10322000B171F07106207872BC729DE0EF21084008
:103230001070E5E73C725C70FD7195E03C72584897
:103240004470FD7190E05C4B1C705C709C70DC7095
:103250001C715C719C71DC715A480068820701D551
:1032600080221A70420703D51A78402632431A701A
:1032700006072022002E02DA1E7816431E70C606AC
:1032800003D51E7810273E431E70860603D51E7890
:1032900008273E431E70460602D51E780E431E7058
:1032A000060603D51E7802273E431E70C60502D5CA
:1032B0001E782E431E70860501D580265E70460559
:1032C00003D55E7840273E435E70060502D55E78E2
:1032D00016435E70C20403D55A78102632435A70E2
:1032E000394A1268960703D55E7808273E435E7018
:1032F000460402D55E780E435E70800403D558788C
:10330000022108435870D00602D5587828435870D7
:103310002E480168002927D02D480078002823D0A6
:10332000DD700120264E421E9200B2588A4208D813
:103330008200B2588A4204D91C71820082180F326E
:103340005A71401CC0B21128EDD3002901D11C7163
:103350005C71306C884202D11C71642058711D4828
:103360000088010A9971D8710B4A507A002804D15B
:10337000D179032901D19471D47100280BD1D0796E
:10338000022808D11472002005490C54401CC0B218
:103390001328FAD3D571F8BD140300203C00002097
:1033A000B60600202FF8FFFFD607000039000020E6
:1033B000E0000020A20600204F030020B90B00000F
:1033C0000C010020FC000020F80000206C00002010
:1033D00044000020D8000020F8B5804D012728794E
:1033E0007F4E002835D17F4C67707F4800680028E9
:1033F00001D0A77001E00221A170010AE1702071E3
:10340000AA2020705520A0710521764801F0B5FC56
:10341000607176490020087028700A21297168704F
:10342000A87069791E2906D23178112905D1704911
:103430000978062901D96F7400E06874A87C6D4989
:10344000012821D0687C01281ED06B4A08681040F2
:103450000860E878810774D5FD210840E8701021E4
:10346000624801F08AFC61490A7C904269D1487C3B
:10347000552866D100246C71487801280AD00228AA
:103480007ED003287DD0A4E00122086852031043B7
:103490000860DEE7C8786875A87DFF2800D06875E9
:1034A000687D00280AD03278002A0BD130701128AC
:1034B00002D00A20287505E02C7503E0287D00283D
:1034C00000D134700F460879497900024018642809
:1034D00000D264204B210901884200D908460A2104
:1034E000FCF706FEC0B2A87344490A7844498242F8
:1034F00009D2EA7B521CD2B2EA73032A05D3032213
:10350000EA73087001E0EC730870E87DFF2800D0D2
:103510000870B879F979000240183A490860387A99
:10352000797A00024018A8623749C8280AD22A7C52
:10353000521CD2B22A74052A06D305222A740860C6
:1035400002E04AE02C740860E86A421C00D008607F
:10355000B87AF97A000240182C490860387B797BE8
:10356000000240182A490860B87BF97B0002401825
:10357000052800D2002027490860052803D201E071
:1035800006E017E00C60E869421C22D0086020E0E9
:103590008878CA78000280181F4A10601F4A487B4A
:1035A00010700C209070C87B010951700007000F4B
:1035B000D0700EE01A488A780270CA7842700A7990
:1035C00082704A79C270C879000601D56F7300E035
:1035D0006C73287EFF2800D06873F8BD14030020A8
:1035E00042000020480300207400002090060020C4
:1035F000EA010020FC000020FFDF00007C990008A9
:1036000043000020CC00002068000020D4000020EF
:10361000D0000020D80000207C00002034030020CF
:103620004403002030B4304B304A1878002802D0D0
:10363000906900280ED090792D492E4C002823D077
:10364000012824D0022825D0032826D0042827D0FA
:10365000086C206028480725017824480429C0699F
:1036600021D00024102929D024480078002837D000
:10367000822935D022482349006809680843224935
:10368000096808432CD124E0086B2060E2E7486B0E
:103690002060DFE7886B2060DCE7C86B2060D9E73B
:1036A000086C2060D6E71D701E30D0611749884233
:1036B00000D9D161D069906130BC70471D701E285F
:1036C00002D91E38D06100E0D461D069906130BC6D
:1036D00070470F480078002802D1106A0028F6D100
:1036E0000C48047030BC7047F200002080010020BC
:1036F0000C0100206C000020DA01002038000020BE
:10370000FC000020F800002000010020DC05000083
:103710003C0000203B00002010B5402000F0AEFF30
:10372000094B5A6B511C00D01046D97A142905D286
:103730004A1CDA72054A8900505010BD0020D87228
:103740000120587010BD0000F40100207804002012
:10375000F0B50021002400250122120313460020A9
:103760008646944631484078002830D02F4E0020BD
:10377000707000262E4FB0003858A04204D3A842E3
:1037800002D32546044604E0A04202D2A84200D358
:103790000546904204D8984202D81346024604E0F7
:1037A000904202D9984200D803464118761CF6B2DE
:1037B000142EE0D360198018C018081A1B4A030998
:1037C000107B1C4984000B51401C10730021174BC7
:1037D000187B0A2828D100241C730022154E900063
:1037E0003058704500D98646604500D2844641185D
:1037F000521CD2B20A2AF2D370466044081AC0089A
:10380000D8631883196C80000A01511A081808300F
:103810000009186480089863588B0749401C80B2DF
:103820005883884200D35C83F0BD0000F40100207F
:1038300078040020C804002060EA000070B51B4C2A
:10384000E0780C2830D30025E570618B608C8142D4
:103850002AD06083A06BA062618A002902D0401A3E
:10386000A06204E0A18A002901D04018A062A06AE9
:103870000F4A01463239914201D3E5620DE05F21E2
:10388000C900884208DB0B4940180B4948430B49E3
:10389000FCF72EFCE06200E0E5622079401CC0B23B
:1038A0002071C82800D3257170BD0000F4010020EC
:1038B0006F0F000009FDFFFFB80B0000DE0B0000DA
:1038C000F8B53A4C3A4D60793A4F002866D0002658
:1038D00066710920C006008A000AC10734480068E2
:1038E0002CD0A17B491CC9B2A17304293CD3A67377
:1038F000E16B314A3239914215D32674E07B401C8A
:10390000C0B2E07303282FD3E673FF2109200131F1
:10391000C00600F09CFE2868102108432860274953
:103920000120087020E0E673217C491CC9B2217493
:10393000032919D326743840286015E020490978F6
:10394000002902D0102108432860E6732674A0796C
:10395000401CC0B2A071782806D9A671FF210920A9
:103960000131C00600F075FE16480078002803D02B
:10397000607B00280BD011E06673FF210920013124
:10398000C00600F064FE28683840286006E0012088
:10399000607301020920C00600F05BFE0A4800784F
:1039A000022802D1286838402860F8BDF4010020C0
:1039B000F8000020EFFF00006F0F00008F010020D3
:1039C000380000208D0100205C00002010B5FFF7BA
:1039D000BFFEFFF733FFFFF773FF10BD00B50748C9
:1039E0000078012809D106480078002805D105484B
:1039F000C07B012801D1FFF777FA00BD3800002015
:103A00003B00002080010020F8B5394F0121787873
:103A100000240225002809D17D70F970B8780028AB
:103A200003D0BC703C717C7100E03D71F8780128D6
:103A30000ED178790A280BD838792E4E002808D074
:103A400001280FD002281CD0032825D0FC703D711E
:103A5000F8BD39713470747002222649002005F0D7
:103A600049FDF8BD3D71802030707070B070F0700D
:103A700034717471B47107221E49092005F03AFDB2
:103A8000F8BD0320387134707170B5700322194984
:103A9000062005F02FFDF8BD0420387107221549D6
:103AA000022004F0DBFF30790007000F30717079DD
:103AB0000007000F7071B1798906890EB171012874
:103AC00001D1022909D00C4800780328E3D13878C5
:103AD000192807D2401C3870F8BD7879401C7871DD
:103AE0003C70F8BD0548016829430160F8BD00003D
:103AF000C4020020CC02002039000020F800002081
:103B0000F8B53C4C607800282ED1032060703A490B
:103B100002260888394F8207002A26DAB043088037
:103B20000020FCF72BFC38700020FCF727FC787095
:103B30000020FCF723FCB870314C00203C21205EB3
:103B4000FCF7ECFAC8B2FCF719FCF87000203C2135
:103B5000205EFCF7E3FAC0B2FCF710FC38710522D6
:103B60003946002005F0C6FCF8BD05222349002097
:103B700004F074FFB8784006400EFCF7F7FB0090A5
:103B8000F8784006400EFCF7F1FB034638798006D2
:103B9000800EFCF7EBFB014600201A4D3C2B04D2B3
:103BA000182902D2009A3C2A18D338707870B8705D
:103BB000F8703871787106221049002005F09AFCDF
:103BC000114800780328CFD12078192802D2401C50
:103BD0002070F8BD286830432860F8BD3C2251436E
:103BE000C9180A4A09B211602070094928680840BA
:103BF0002860F8BDC402002064000020CC02002030
:103C000066000020F8000020390000208C00002011
:103C1000FDFF000010B50B4C2078FF2801D1FFF705
:103C2000F3FE2078012806D0022803D0002805D012
:103C3000FFF766FF10BD00F007F810BDFFF760FF4B
:103C400010BD00005C000020F8B5284E01207178FE
:103C500000240225002902D17570B071F471B17988
:103C6000012913D1F179224F002908D1F0713C705C
:103C70007870BD7003223946062005F03BFCF079D0
:103C8000012804D002280FD0B471F471F8BDF57189
:103C90003C707C70BC70FC703C717C7106221449D5
:103CA000002005F027FCF8BD0320F0710322104925
:103CB000062004F0D3FE38780007000F38707878BB
:103CC0000007000F7870B9788906890EB97001284D
:103CD00001D10229E7D030780F2802D2401C307081
:103CE000F8BD0449086828430860F8BDC4020020F4
:103CF000CC020020F8000020F8B569486949006C42
:103D000000900860684C0127206A684E0025422810
:103D100007D327756575356075603803B060F56049
:103D2000B6E00621FCF7E4F9002900D02775002948
:103D30002BD1207D012828D12575607D401C607520
:103D40005B480088306000205B495A4F09683A5C44
:103D50000A235A438A4208D83A1852785A438A4268
:103D600003D9564A4300D25A3260401CC0B22328BD
:103D7000EDD371683068814200D27060B1688142D1
:103D800000D9B060F1680818F060607D0A287FD320
:103D900065757168F068401AB168401AF060C00833
:103DA0006421FCF7A5F9464EC0B23070322901D922
:103DB000401C30703A4832780068174650430099EA
:103DC000FCF796F93F49C0B208703A460527052A24
:103DD00000D2377032783223322A00D93370032868
:103DE00001D20320087008780A220A2800D90A7034
:103DF0003348354E0078B0800978F180052800D22C
:103E0000B780B088322800D9B380032901D20320BB
:103E1000F080F0880A2800D9F280B0880121FEF7EE
:103E2000D1FC2A498880F0880121FEF7CBFC274984
:103E3000C880B0880221FEF7C5FC25498880F0883B
:103E40000221FEF7BFFC2249C880B0880321FEF79B
:103E5000B9FC20498880F0880321FEF7B3FC1D4996
:103E6000C8801D490878820712D5FD2210400870CD
:103E70001A4E134831680078814209D38000052129
:103E8000FCF736F93060052802D200E000E0376028
:103E9000206A002802D112480570E573F8BD0000C1
:103EA0000C0100206C00002080010020680400202C
:103EB000F001002056020020200200207A0200209B
:103EC0005402002055020020380400204404002041
:103ED000500400205C040020DE0000208000002050
:103EE0003B00002010B52449224808602348254A99
:103EF00001780723224C9069042902D0102908D0A8
:103F00000FE023701E3090611F4B984209D99361D6
:103F100007E023701E3890614B23DB00984200D2EB
:103F200093611A480023046819480068044319483B
:103F3000006804431848002C01D0037010BD174CD2
:103F4000822912D01649097800290ED0154909781E
:103F500000290AD12178012907D0116AB429EDD1AD
:103F600012210170FEF7C0FF10BD102101702370F7
:103F700010BD0000220B00006C000020DA010020C0
:103F8000F200002080010020DC050000FC00002081
:103F9000F8000020000100203B000020E10000208C
:103FA000380000203C000020F8B52548254A01686B
:103FB00011400160244E00253068244C14283BD861
:103FC00023490A78022A06D10A2804D20D70607AA1
:103FD000401C607202E00A2800D36572607A0328F0
:103FE00006D3962003F0EEFB1A48057601202071D7
:103FF00019480078002801D0022020713068174E3F
:10400000062803D2FEF7F8F8357016E0FF270C28D3
:1040100005D2FEF7FBF81248077435700DE0102842
:1040200008D8FDF78DF9FEF7F1F80D480774012067
:10403000307002E0257100E0257103F0E3FBF8BD6C
:10404000F8000020F7FF00001004002058000020B6
:10405000DA01002038000020210300207203002034
:104060002404002010B517490879012806D0022839
:104070001ED0002823D004F0FDFC10BD1248134AC6
:10408000037810681E2B06D34979002903D0082134
:104090000843106002E00E490840106005F08AF9FC
:1040A000FEF782FA04F0F8FA002005F013F910BDCB
:1040B000FDF7FAFE0748006C05F00CF910BD04F09E
:1040C000D9FC10BD580000201E030020F80000207D
:1040D000F7FF00000C01002010B41A4801684A1CC8
:1040E00001D0491C0160184900230A78002A09D030
:1040F00016490968002905D041684C1C03D0491CA9
:10410000416000E04360002A06D0C36081684A1C19
:1041100008D0491C816005E08360C1684A1C01D059
:10412000491CC1600A490B4A09681268114306D04C
:1041300001694A1C01D0491C016110BC7047036130
:1041400010BC704710040020390000206C000020D3
:10415000FC000020F800002070B5AE490878002867
:1041600001D0401E0870AC490878FF2801D2401CDD
:104170000870AA490878002801D0401E0870A84994
:10418000A84A0888904201D2401C0880A6490878B5
:10419000FF2801D2401C0870A44C00212078401C4C
:1041A000C0B22070642800D321702078A04D05286B
:1041B00008D0192849D02D287BD0412877D0552800
:1041C00076D0F9E0FFF788FF9A490878FF2801D2F6
:1041D000401C087098490878FF2801D2401C0870DC
:1041E00096490878FF2801D2401C08709449087845
:1041F000FF2801D2401C087092490878FF2804D299
:104200002A78002A01D1401C08708F4908880028AC
:1042100001D0401E08808D4A04201178014311709E
:10422000E078431CE370022804D908200143117090
:104230000120E07086480178491C017085490878A2
:10424000FF2865D2401C0870B6E0834A1078FF282A
:1042500001D2401C1070814A1078002801D0401E05
:1042600010707F4A1078431C1370FE2800D3117021
:104270007C480078022806D17B4A1078431C1370D2
:10428000F02800D3117079490878FF2801D2401C2A
:10429000087077490878002801D0401E08707549D9
:1042A0000878002834D0401E087085E001E030E036
:1042B0004DE071490878002801D0401E08706F4910
:1042C0000878002801D0401E08706D490878002841
:1042D00001D0401E08706B490878002801D0401EAC
:1042E000087069490878002801D0401E08706749A5
:1042F0000878002801D0401E087065490878002819
:1043000001D0401E0870E088904255D2401CE080E9
:1043100052E060490878002801D0401E08705E49CC
:104320000878002801D0401E08705C4908780028F1
:1043300001D0401E08705A490878002801D0401E5C
:104340000870A078FF2837D2401CA07034E0554A8E
:104350001078FE2801D2401C1070534A1078FF28B4
:1043600001D2401C1070514A1078002801D0401E24
:1043700010704F4A1078FF2801D2401C10704D4A2F
:104380001078002801D0401E10704B4A1078002889
:1043900001D0401E10702878002801D0401E2870DF
:1043A000464B1A68002A07D02878002804D1607884
:1043B00001282AD0401C60700A212078FBF798FE63
:1043C000002921D13E490878002801D0401E0870FC
:1043D0003C490878002801D0401E0870E068411C64
:1043E00001D0401CE06038490888002801D0401EF8
:1043F000088036490888002801D0401E08802079AE
:10440000FF2801D2401C207170BD6170521E1A60DD
:10441000D2E700001D03002020030020DC00002064
:10442000E4010020FFFF000085030020240000209D
:10443000F2000020F9010020FC010020F70100201B
:10444000F6010020E3000020E40000204E000020E0
:10445000E900002019030020650300202703002045
:10446000E80000205C000020EB0000203D00002060
:104470003E0000203F0000204000002041000020BE
:1044800080010020890100208C0100208E01002085
:10449000A40100207C010020DC0100202803002072
:1044A0004F00002050000020EA0100208101002080
:1044B0001E030020E8020020C5020020A001002009
:1044C000EA000020180300208A0300208C0300204B
:1044D000F0B421481F490160204C226A002A01D112
:1044E0000120A0741E48A57CFF23F5330026016837
:1044F000012D15D1A6741B4D9942286807D21A4F79
:104500003F78002F03D0194F3F68074314D09942DA
:1045100006D3174F3E70174F384028601648067074
:104520001648994213D33C2A11D900783C2801D966
:104530003C202062F0BC70472027384328600E4D95
:104540002878401C28700E4DF0202880E8E706707F
:10455000F0BC7047220B00006C000020800100209E
:10456000D8000020F800002038000020FC000020C7
:104570003B000020DFFF00005B000020E300002084
:10458000E400002010B50748007C4006010E0648F4
:1045900000F0B2F8034800F021FD11210148FBF7BB
:1045A000EAFD10BD2404002050010020F0B40022D8
:1045B0000325012393400C681C409C422AD10C79AE
:1045C000012C01D0022C12D1876854002E46A6403F
:1045D000B74387604E79A640846826438660848806
:1045E0009C43848084888B7993401C438480066834
:1045F00053002C469C40A64306600E7907689E40F7
:104600003E430660C668A643C660CC799C40C3683A
:104610001C43C460521C102ACBD3F0BC704710B4AA
:104620004B07DB0E9A40C90889000818016A0F245D
:104630009C40A1430162016A1143016210BC7047B2
:1046400002460020128A0A4200D0012070470185EC
:1046500070478161704700000449016000210171C9
:10466000012242718171C17170470000FFFF00009B
:10467000002A01D08161704701857047F8B5002597
:104680000F4E01463046B162FBF72CFE0024102786
:1046900004213046FBF702FE0028F9D03046FBF734
:1046A000FAFD45193760641CE4B2032CF0D33046A0
:1046B000FBF71DFE03212846FBF71AFD80B2F8BD6B
:1046C00000240140FEE7000010B5094801780948C0
:1046D000012906D0FA2101F0E3F9FA2001F0B0F83F
:1046E00010BD322101F0DCF9322001F0A9F810BD33
:1046F000720300200040014070B504460E46A189B7
:104700000022A068FFF7B4FFA18800222068FFF70D
:10471000AFFF07256907490F3046C840C207D20FCF
:10472000A18A2069FFF7A4FFA18801222068FFF772
:104730009FFF032001F0B2FCA18800222068FFF750
:1047400097FF032001F0AAFC28466D1EEDB2002859
:10475000E0D1A1890122A068FFF78AFF032001F0C0
:104760009DFCA1890022A068FFF782FF032001F0D1
:1047700095FC70BD00B5074800F02CF8032000F050
:104780001DF8054800F020F800F010F800F006F8D9
:1047900000BD000055550000C40900000249014851
:1047A00008607047CCCC000000300040024901484E
:1047B00008607047AAAA0000003000400149486024
:1047C00070470000003000400149886070470000D9
:1047D0000030004001490860704700000030004090
:1047E00070B5174C0125E0790926ED02F606002880
:1047F0001CD129463046FFF72CFFA079E17A884288
:104800000CD201F023FB002810D00E48A179405CA7
:1048100001F004FBA079401CA07107E00A490020C8
:1048200048702072012060720220E07101F00EFBDE
:10483000002803D029463046FFF709FF70BD00006D
:1048400014030020A2060020B606002070B50D4C0F
:10485000A07801280CD0002809D1607E012500280D
:104860000AD002F05BFD002801D1A570607670BD12
:10487000054802F04DFD70BD0721044802F05CFEC2
:10488000657670BD14030020CD03000848030020A6
:1048900000B583B000206946487101208871087115
:1048A000E02000900248FFF781FE03B000BD000049
:1048B0000004004810B5144C002240212046FFF7A8
:1048C000D7FE03218020FBF7F3FD0921E320FBF74E
:1048D000EFFD09211820FBF7EBFD09210120FBF773
:1048E000E7FD09212920FBF7E3FD09210320FBF760
:1048F000DFFD09218020FBF7DBFD0122402120465E
:10490000FFF7B6FE10BD000000040048F0B589B006
:104910000121480400F086FA0121480200F09EFAC5
:10492000502006900321684601770024C4770927A8
:10493000FF0606A93846FFF739FE204E3046FBF742
:1049400083FC6846FBF7D8FC009401256846057196
:10495000029403940494059469463046FBF7ACFC3A
:10496000174800F049FA052210213046FBF759FCA0
:104970003046FBF779FC01213046FBF757FC01215B
:104980003046FBF755FC01213046FBF787FC002839
:10499000F9D006A8FFF760FEFF26013606966846A6
:1049A000057744778477C57706A93846FFF7FEFD7B
:1049B00031463846FFF74DFE09B0F0BD00240140F6
:1049C00000400001F0B583B027200121400400F031
:1049D00029FA6846FFF740FE0F20000300900124EB
:1049E00068460471002545718571C47169464E4859
:1049F000FFF7DCFDE0030090022768460771694677
:104A00004948FFF7D3FD01220F214748FFF707FE72
:104A100083200090684605714571C4710926F60629
:104A200069463046FFF7C2FD009469463E48FFF7ED
:104A3000BDFD03208003009069463C48FFF7B6FDAA
:104A400000976846077145718571C471694636489B
:104A5000FFF7ACFD002201213348FFF7E0FD684677
:104A6000FFF7FAFD032000020090684604714571CB
:104A70008471C57169462C48FFF798FD2002B0612A
:104A80004000B06120270097684604714571847129
:104A9000C57169463046FFF789FD042000906946DC
:104AA0002148FFF783FDB7611F49042088618020FA
:104AB0000090684605714571C47169461C48FFF74E
:104AC00075FD40200090684604718571C47103270C
:104AD000477169461648FFF769FD60030090684614
:104AE00004718571C471477169461048FFF75EFD16
:104AF00040210F48FFF7ADFD61030C48FFF7A9FD0A
:104B00006846FFF7A9FD27030097684604714571C1
:104B10008571C47169463046FFF748FD3946304615
:104B2000FFF795FD03B0F0BD000400480008004801
:104B30000014004810B5FFF7ABFE00F003FEFFF7CE
:104B4000B9FE10BDF0B589B00121080200F078F976
:104B50000121080400F082F906A800F0DFFFF92522
:104B600007952F2669460E8300240C844C8306A9E2
:104B7000284800F097FF01A800F086FF60276946EB
:104B80008F800120C8800220088201A9214800F0FE
:104B900023FF00211F4800F083FF08211D4800F07B
:104BA00069FF01211B4800F0A8FE0121194800F00F
:104BB00098FE194881880122D2031143818006A8FA
:104BC00000F0ACFF079569460E830C844C83134DAF
:104BD00006A9284600F066FF01A800F055FF6946C7
:104BE0008F800120C8800C8201A9284600F0AAFE0F
:104BF0000021284600F052FF0821284600F0E6FE7A
:104C00000121284600F079FE0121284600F069FEC6
:104C100009B0F0BD0040014040400140002000408C
:104C2000F0B4FF20344DA5302880354E3348308015
:104C3000344B0A271C783449002C56D014200880A5
:104C400001200022142341006A527252002C4FD0DE
:104C50002D4F7B52401CC0B20428F4D300202B4FB0
:104C6000254C4100655A2A4C65522A4D745A6C52A3
:104C700029493C5C0C54401CC0B20428F0D327489E
:104C800002802748027042708270C270254802700C
:104C900025480168254801602548282101702549DB
:104CA00024200870244C1C212170244CB421216044
:104CB000234C216023490A70234C0421217023498D
:104CC0000870234803600F4802702248036022499D
:104CD00019200870214905200870214802702148D8
:104CE000027021480270F0BC704708480770A7E7BF
:104CF000064F0A213954ADE7A8000020EC0400005B
:104D0000B000002057000020C000002090000020CC
:104D100098000020A000002094000020D80100206E
:104D2000E6010020390000200C0100200C030020C7
:104D300083010020840100208501002098010020CB
:104D40009C010020DE00002086010020460000209B
:104D5000780000208000002054020020550200202E
:104D60008701002045000020F2010020704710B5A7
:104D700002F0DCFA00F0D6FF10BD10B403460020AC
:104D80000122012906D99C5C2018C0B2521CD2B263
:104D90008A42F8D310BC70477047000030B4827864
:104DA00001240178002A17D08B080F4A9B009A181B
:104DB00013688907C90EFF258D40AB434578AD07C1
:104DC0002D0E8D401D4315600078C006C00E844036
:104DD0000648046030BC7047C806C00E84400448D2
:104DE000046030BC7047000000E400E000E100E037
:104DF00080E100E07047000009494A6801239B03F5
:104E00009A434A604A6883B21A434A600A6B8B1518
:104E10009A430A630A6B000C02430A63704700005E
:104E200000100240054A002903D051690143516135
:104E30007047516981435161704700000010024082
:104E4000054A002903D0D1690143D1617047D16976
:104E50008143D1617047000000100240054A0029DB
:104E600003D09169014391617047916981439161D8
:104E70007047000000100240054A002903D0D168A5
:104E80000143D1607047D1688143D1607047000011
:104E900000100240F8B50446384E70680C210840F6
:104EA000374D00281CD004281CD008281CD02560B1
:104EB0007068F02108400009324F3A5C20680146D2
:104EC000D1406160726807231B021A40120ABA5C63
:104ED000D140A160326BD20520D42B4AE26025E09C
:104EE0002560E5E72560E3E771680F208004014055
:104EF00070680122120410408F0CBF1C002809D0DA
:104F0000F06A0107090F491C2846FBF7F1F87843BE
:104F10002060CDE71D4847432760C9E77268520407
:104F200002D44A08E26001E08A08E260326B184B62
:104F3000520602D4174A226100E02361326BD20686
:104F400001D4656100E06061326B92070FD0316B74
:104F50008907890F01290CD0306B8007800F022848
:104F600009D0306BC043800700D1A561F8BDA161B5
:104F7000F8BDA061F8BDA361F8BD000000100240BB
:104F800000127A0014000020809FD50000093D0027
:104F9000008000001280000008B500920B46024617
:104FA000A021024800F08DF908BD0000F8020020A1
:104FB0007047000010B48A07120F0F2393408C082B
:104FC0000549A40061188C689C438C608B689040F4
:104FD00003438B6010BC70470000014070B584B083
:104FE0000446A07B217B4008C9074000C90F084345
:104FF0000021FBF709FA69460870607BE17A4008F6
:10500000C9074000C90F08430021FBF7FDF96946B5
:105010004870207B617B4008C9074000C90F0843E6
:105020000021FBF7F1F969468870E07A617A40085F
:10503000C9074000C90F08430021FBF7E5F969469D
:10504000C870A07A00214208C0075200C00F104368
:10505000FBF7DAF969460871607A217A4008C907D6
:105060004000C90F08430021FBF7CEF9694648719B
:10507000207AE1794008C9074000C90F08430021A0
:10508000FBF7C2F969468871E079002140084000C9
:10509000FBF7BAF96946C871E07861784008C9073A
:1050A0004000C90F08430121FBF7AEF969460872B9
:1050B000A078A1794008C9074000C90F0843012121
:1050C000FBF7A2F9694648726078A1784008C907E1
:1050D0004000C90F08430121FBF796F96946887221
:1050E00020780121FBF790F96946C872A0796179AF
:1050F0004008C9074000C90F08430121FBF784F9A4
:10510000694608736079E1784008C9074000C90F13
:1051100008430121FBF778F969464873207901219A
:105120004208C0075200C00F1043FBF76DF96946F3
:105130008873E07B012140084000FBF765F9694670
:10514000C8736C46114E002240213046FFF790FA9A
:105150000321AA20FBF7ACF906210020FBF7A8F9F0
:105160000F252078641C0821FBF7A2F928466D1E44
:10517000EDB20028F5D1012240213046FFF778FA40
:10518000032000F08BFF04B070BD00000004004855
:1051900010B482B0002301930093244801680122D7
:1051A00012041143016051000524240302680A40DF
:1051B0000092019A521C0192009A002A02D1019A8F
:1051C000A242F3D10168890302D50121009100E0D8
:1051D00000930099012925D1154A112111604168D8
:1051E00041604168416041683F221204914341603F
:1051F0004168112212041143416001680122120624
:105200001143016001688901FCD541688908890062
:105210004160416802221143416041680907890FDA
:105220000229FAD102B010BC704700000010024001
:105230000020024010B504460A00A189A06803D0EE
:105240000022FFF715FA02E00122FFF711FA207C95
:1052500000F024FFA18801222068FFF709FA207CD2
:1052600000F01CFFA18800222068FFF701FA10BDA2
:1052700070B50446A1890122A068FFF7F9F9072556
:10528000207C00F00BFFA18801222068FFF7F0F9D5
:10529000207C00F003FFA189A068FFF7D1F971001D
:1052A0004018C6B2A18800222068FFF7E1F928461D
:1052B0006D1EEDB20028E3D1207C00F0EFFE3046F9
:1052C00070BDFFB581B00A9F0C4615461E46019879
:1052D00000F090F82146019800F0F2F8019800F0F3
:1052E000C1F8002805D0019800F0A1F8012005B010
:1052F000F0BD2946019800F0E3F8019800F0B2F8FB
:10530000002805D0019800F092F8012005B0F0BD0A
:10531000019800F06FF8012021460143019800F048
:10532000CFF8019800F09EF8002805D0019800F011
:105330007EF8012005B0F0BD0025781EC4B2002F14
:105340000FD00198FFF794FF29466D1CEDB2705401
:1053500021460198FFF76EFF2046641EE4B2002844
:10536000EFD1019800F063F8002005B0F0BDFFB563
:1053700081B00A9D0F4614461E46019800F03AF887
:105380003946019800F09CF8019800F06BF800286D
:1053900005D0019800F04BF8012005B0F0BD214682
:1053A000019800F08DF8019800F05CF8002805D015
:1053B000019800F03CF8012005B0F0BD0024002D5C
:1053C00012D9315D019800F07BF8019800F04AF89D
:1053D000002805D0019800F02AF8012005B0F0BDA2
:1053E000641CE4B2AC42ECD3019800F020F8002039
:1053F00005B0F0BD10B50446A1890122A068FFF7F1
:1054000037F9A18801222068FFF732F9207C00F0EB
:1054100045FEA1890022A068FFF72AF9207C00F050
:105420003DFEA18800222068FFF722F910BD10B5CB
:105430000446A1890022A068FFF71AF9207C00F039
:105440002DFEA18801222068FFF712F9207C00F0D0
:1054500025FEA1890122A068FFF70AF9207C00F04F
:105460001DFE10BD70B50446A1890122A068FFF79A
:10547000FFF8207C00F012FEA18801222068FFF7CF
:10548000F7F8207C00F00AFEA189A068FFF7D8F8A1
:105490000A4D2870002801D0012200E00022A189D5
:1054A000A068FFF7E5F8A18800222068FFF7E0F880
:1054B000207C00F0F3FD287870BD00001003002070
:1054C00070B504460E4607253046E840C207D20FA5
:1054D000A189A068FFF7CCF8207C00F0DFFDA1884F
:1054E00001222068FFF7C4F8207C00F0D7FDA188D6
:1054F00000222068FFF7BCF828466D1EEDB2002898
:10550000E2D170BDF0B4464B464F19461E7BCA7AB5
:105510003C7800252031002E07D0552A15D90126C8
:105520000E701D65641C3C701EE05E793C2E0AD92D
:10553000512A04D81865032C6ED20D706CE01D65DD
:105540000120087068E0186566E0374C512A24682D
:1055500004D9354F022634433C6005E04E2A03D877
:10556000324E314F34403C602F4C2478A40751D543
:10557000CC79F0272E4D002C26D15F728A71012440
:10558000CC716C6B84420DD2EE6B864201D21C65ED
:105590001AE0AC6B844202D22C6B1C6514E0EC6AFE
:1055A0001C6511E0AC6A84420DD22E6B864202D299
:1055B000EC6A1C6508E0EE6A864201D21C6503E0D5
:1055C0006C6A1C6500E018655C7A002C18D18C7937
:1055D000A24214D95F728A7101218A00AA581C6DF7
:1055E000A24203D14A1E9200AA581A65491CC9B2A8
:1055F0001129F2D32968814202D1196500E05F7256
:10560000196D884200D218652868196D884203D93F
:10561000186501E01865CD71186DF0BC7047000089
:1056200038000020AF01002000010020FDFF000035
:105630000C01002010B50A480178002902D0002191
:10564000017008E0012101704168491C4160FEF7CA
:1056500063F803F091FFFFF7C3F800F083FA10BD81
:105660000804002010B50C487D2109010068FAF7F4
:105670003FFD0A49401E88420CD809494861094843
:105680000722C3691B021B0A4C042343C361002089
:1056900088610A6110BD000000000020FFFFFF00CC
:1056A00000E000E004ED00E010B5144801680122BC
:1056B000114301604168124A114041600168114A7A
:1056C0001140016001680122920491430160416828
:1056D0003F22120491434160C16A09090901C16274
:1056E000016BFF22543291430163416B4908490029
:1056F000416300218160FFF74BFD10BD00100240A7
:105700000CB8FFF8FFFFF6FE10B501218C0720460C
:1057100000F001F9002809D00121204600F0DEF850
:1057200007480078C10702D003F086FF10BD40078C
:1057300002D504F009F810BD012003F0DDFF10BD13
:105740006A03002070B586B01820049000256846D2
:105750004575012606758575C67504A91448FEF7BA
:1057600025FF01210220FFF76BFBF92002902F217A
:10577000684681808581C5800E4C01A9204600F0D5
:1057800091F901221146204600F0D1F86846867052
:10579000102101704570FFF701FB2088B043208085
:1057A000FA20E06220883043208006B070BD0000FF
:1057B0000004004800040040F8B51E4C01212046BA
:1057C00000F0A9F800281FD00121204600F086F83B
:1057D000194D01262878194F002816D0002028706E
:1057E000002208213846FEF743FF002210213846E8
:1057F000FEF73EFF2088B04320806888FA21081A0F
:10580000E062208830432080F8BD2E7001220821FC
:105810003846FEF72DFF012210213846FEF728FFFB
:1058200020884008400020806888E062208830435B
:105830002080F8BD000400406E03002000040048F2
:1058400010B5154C1549002810D0FA281DD308882A
:10585000400840000880012208212046FEF708FF8A
:10586000012210212046FEF703FF10BD08884008E2
:1058700040000880002208212046FEF7F9FE0022A1
:1058800010212046FEF7F4FE10BD054A508008881E
:1058900001221043088010BD0004004800040040AD
:1058A0006E03002010B50B4C0121204600F033F8A8
:1058B000002809D00121204600F010F806480078A1
:1058C000810702D501F0A6FD10BD0007FCD501F04F
:1058D00059FE10BD001000405D030020C943018245
:1058E0007047002904D001880122114301807047CC
:1058F000018849084900018070474030002905D0DF
:1059000081880122D2031143818070478188490434
:10591000490C818070470022038A0B40808908402F
:10592000002B02D0002800D0012210467047002A28
:1059300003D082890A438281704782898A438281A7
:105940007047000070B4028C520852000284048C2C
:105950008288038B7025AB439B089B000D881D43F9
:1059600002239C438E8926434B883343114CA0422B
:1059700008D0114CA04205D0104CA04202D0104CCF
:10598000A0420FD10824A343CC891C4304239C4389
:105990008B8823430B4C22400B4C22400C8A14432F
:1059A0004A8A22438280058389684163038470BCEC
:1059B00070470000002C01400040014000440140BD
:1059C00000480140FFFE0000FFFD0000028B08239D
:1059D0009A430A430283704770B4028C10239A439F
:1059E0000284048C8288038B1C4D2B401C4D2B4061
:1059F0000D782D062D0C1D4320239C438B891B0500
:105A00001E0C26434B881B051B0C3343154CA04230
:105A100002D0154EB04219D1144E32400E8AB6044F
:105A2000360C3243A04211D18024A343CC892405F3
:105A3000240C1C4340239C438B881B051B0C2343D5
:105A40000B4C22404C8AA404240C22438280058300
:105A500089688163038470BC70470000FF8F000079
:105A6000FFFC0000002C014000400140FFFB000053
:105A7000FFF70000028B034B1A4009021143018318
:105A800070470000FFF70000002101804180818005
:105A900081608181C1810182418270474163704789
:105AA0008163704710B40288154B984206D00124D8
:105AB000A407A04202D0134CA04203D17024A243F9
:105AC0004C882243104CA04203D0104C22400C8939
:105AD000224302804A68C2620A880285984208D03E
